:100000000C9482010C94B3010C94B3010C94B301D1
:100010000C94B3010C94B3010C94B3010C94B30190
:100020000C94B3010C94B3010C94B3010C94B30180
:100030000C94B3010C94B3010C94B3010C94B30170
:100040000C94B3010C94CA070C94B3010C94B30143
:100050000C94B3010C94B3010C94B3010C9464059B
:100060000C94B3010C94D8050C94AE050C94B30118
:100070000C94B3010C94B3010C94B3010C94B30130
:100080000C949C070C94B3010C94B3010C94B30131
:100090000C94B3010C94B3010C94B3010C940E06B0
:1000A0000C94B3010C94B3010C946E070C94B3013F
:1000B0000C94B3010C94B3010C94B3010C9440075D
:1000C0000C94B3010C94B3010C94B3010C94B301E0
:1000D0000C94B3010C94B3010C94B3010C94B301D0
:1000E0000C94B301E401E701D601DA01DE011E023E
:1000F000EB01EF01F501F901FD01030207020B021B
:100100001E02110215021902250A2A0A2F0A390AAB
:10011000430ABC0A4D0A550A5D0A670A710A7B0A3E
:100120008A0A940ABC0A9E0AA80AB20A0C94B20A65
:100130000C94BD020C94670A0C9470020C94A80AEB
:100140000C94DA010C9407020C94E4010C94F80767
:100150000C94940A0C941E020C944D0A0C94F50114
:100160000C9419020C94F9010C94EB010C945D0AA7
:100170000C942F0A0C9419050C94390A0C94CB0298
:100180000C9452050C94FD010C94BC0A0C94250AA5
:100190000C949E0A0C94710A0C942A0A0C949A02EC
:1001A0000C946F020C94550A0C9415020C940302E3
:1001B0000C94DE010C94A4030C94D6010C942D0530
:1001C0000C94A9020C9449030C940A050C94E701C1
:1001D0000C948A0A0C94EF010C9402030C94110203
:1001E0000C9440050C940B020C9409050C94430AE2
:1001F0000C9455050C9435050C947B0A00002100E5
:10020000240027002A002D003000330001010000E7
:10021000040107010A0100002200250028002B002C
:100220002E003100340002010000050108010B011D
:1002300005050505070508080808020202020A0A62
:100240000808040404040101010101010101030380
:10025000030303030303040707070C0C0C0C0C0C2B
:100260000C0C0202020206060606060606060B0B28
:100270000B0B0B0B0B0B0102102020080810204069
:10028000102040800201020108040201010204085A
:1002900010204080804020100804020180040201E8
:1002A0008040201008040201080402010102040831
:1002B00010204080010204081020408000000A0B3A
:1002C00002090C0D0E0807030401000000000000E5
:1002D000000000000000000000000000000000001E
:1002E00000000000000000001211100000000000DB
:1002F00000000000000000000000000000000000FE
:100300000000F80711241FBECFEFD1E2DEBFCDBF42
:1003100000E00CBF12E0A0E0B2E0E2EEF5E100E0A8
:100320000BBF02C007900D92A632B107D9F724E0A7
:10033000A6E2B2E001C01D92A830B207E1F711E0D9
:10034000C2E8D1E000E006C021970109802FFE013C
:100350000E94E20AC138D10780E00807A9F70E948D
:1003600068080C94EF0A0C940000362F90E0FC0112
:10037000E454FD4F4491FC01EA58FD4F2491FC01E7
:10038000E05DFD4F9491992309F46CC0442309F476
:1003900055C050E0FA013197E231F10508F04EC046
:1003A0008827EE58FF4F8F4F0C94E20A809180000F
:1003B0008F7707C0809180008F7D03C0809180007F
:1003C000877F809380003AC084B58F7702C084B560
:1003D0008F7D84BD33C08091B0008F7703C0809142
:1003E000B0008F7D8093B00029C0809190008F77FE
:1003F00007C0809190008F7D03C080919000877F1F
:10040000809390001BC08091A0008F7707C08091DF
:10041000A0008F7D03C08091A000877F8093A00003
:100420000DC0809120018F7707C0809120018F7DC2
:1004300003C080912001877F80932001E92FF0E0A5
:10044000EE0FFF1FEA5EFD4FA591B4919FB7F894A0
:10045000311104C08C912095282302C0EC912E2BE1
:100460002C939FBF0895CF93DF9390E0FC01EA584F
:10047000FD4F2491FC01E05DFD4F8491882361F1E3
:1004800090E0880F991FFC01E450FE4FC591D49174
:10049000FC01EA5EFD4FA591B491611109C09FB7BF
:1004A000F8948881209582238883EC912E230BC0B9
:1004B000623061F49FB7F8948881322F309583239E
:1004C0008883EC912E2B2C939FBF06C08FB7F89496
:1004D000E8812E2B28838FBFDF91CF910895089557
:1004E000CF93DF93AC01E091C002F091C10230974D
:1004F000F1F09091BB028091BA029817C0F090E0A1
:10050000292F30E02617370754F4D901A65DBD4FD7
:10051000EA01C20FD31F28812C939F5FF1CF109265
:10052000BB026093BA02CB01DF91CF911994DF91A6
:10053000CF910895FC01538D448D252F30E0842FF9
:1005400090E0821B930B541710F0CF9608950197FB
:100550000895FC01918D828D981761F0828DDF01E5
:10056000A80FB11D5D968C91928D9F5F9F73928FA6
:1005700090E008958FEF9FEF0895FC01918D828D9B
:10058000981731F0828DE80FF11D858D90E0089568
:100590008FEF9FEF0895FC01918D228D892F90E0C0
:1005A000805C9F4F821B91098F73992708958BEC74
:1005B00092E00E94CB0221E0892B09F420E0822FF7
:1005C0000895FC01848DDF01A80FB11DA35ABF4F10
:1005D0002C91848D90E001968F739927848FA68942
:1005E000B7892C93A089B1898C9180648C93938D69
:1005F000848D981306C00288F389E02D80818F7D59
:1006000080830895EF92FF920F931F93CF93DF9310
:10061000EC0181E0888F9B8D8C8D981305C0E88953
:10062000F989808185FD24C0F62E0B8D10E00F5FC7
:100630001F4F0F731127E02E8C8DE8120CC00FB6E0
:1006400007FCFACFE889F989808185FFF5CFCE01D3
:100650000E94E102F1CF8B8DFE01E80FF11DE35AFC
:10066000FF4FF0820B8FEA89FB898081806207C08F
:10067000EE89FF896083E889F989808180648083BD
:1006800081E090E0DF91CF911F910F91FF90EF906B
:100690000895CF93DF93EC01888D8823C9F0EA8910
:1006A000FB89808185FD05C0A889B9898C9186FD6B
:1006B0000FC00FB607FCF5CF808185FFF2CFA88968
:1006C000B9898C9185FFEDCFCE010E94E102E7CF81
:1006D000DF91CF91089580E090E0892B21F00E9476
:1006E000D702811125C080E090E0892B41F080E0A5
:1006F00090E0892B21F00E94000081111CC080E055
:1007000090E0892B41F080E090E0892B21F00E945D
:100710000000811113C080E090E0892BA1F080E0FF
:1007200090E0892B81F00E94000081110AC0089599
:100730000E940000D8CF0E940000E1CF0E9400007C
:10074000EACF0C9400000895CF92DF92EF92FF92CF
:100750000F931F93CF93DF936C017A018B01C0E05D
:10076000D0E0CE15DF0581F0D8016D918D01D60165
:10077000ED91FC910190F081E02DC6011995892B36
:1007800011F02196EECF7E01C701DF91CF911F912D
:100790000F91FF90EF90DF90CF90089585ED8093BB
:1007A000BC008091BC0084FDFCCF1092B70208957C
:1007B00040916E02262F30E0240F311D2132310589
:1007C000DCF42091B7022430C9F4FC0180E090E011
:1007D000861758F430916E022191DC01A25BBD4F67
:1007E000A30FB11D2C930196F3CF80916E02680F79
:1007F00060936E0280E0089581E0089582E008959C
:100800008130910581F41092800082E08093810014
:100810001092850010928400B19A80916F008260DE
:1008200080936F0008958230910569F410929000D2
:1008300082E080939100109295001092940088BB02
:100840008093710008958330910569F41092A0009F
:1008500082E08093A1001092A5001092A40089BBB1
:10086000809372000895892B61F41092200182E038
:100870008093210110922501109224018ABB80935C
:1008800073000895CF92DF92EF92FF920F931F9320
:10089000CF93DF936C018B017A01EC01C65BDD4FD6
:1008A000888187FF04C0FB011182108224C02CE0E4
:1008B0002C9DC0012D9D900D11242881AC01420F6B
:1008C000511D27FD5A952091040430E0421753072B
:1008D00094F42881AC01420F511D27FD5A959A01CD
:1008E000FA01EE0FFF1F2E0F3F1FF901EC58FC4FCE
:1008F000208126FD19C088818F5F88832CE02C9D84
:10090000C0012D9D900D11242881AC01420F511D75
:1009100027FD5A952091040430E042175307BCF498
:1009200028812C3044F113C02881820F911D27FDAE
:100930009A95FC01EE0FFF1F8E0F9F1FFC01EC58D4
:10094000FC4F808160E08F730E94B501D4CFF80125
:1009500080819181049680349C4918F480E49CE95C
:1009600004C0F801808191810496F701918380830E
:100970008FEF888345C0F801408151812881BC01F7
:10098000620F711D27FD7A959B01FB01EE0FFF1F82
:100990002E0F3F1FF901EC58FC4F21813281240FAB
:1009A000351FF701318320832881AC01420F511D8F
:1009B00027FD5A959A01FA01EE0FFF1F2E0F3F1FD8
:1009C000F901EC58FC4F208126FF1AC02881820FC4
:1009D000911D27FD9A95FC01EE0FFF1F8E0F9F1FA3
:1009E000FC01EC58FC4F808161E08F73DF91CF9167
:1009F0001F910F91FF90EF90DF90CF900C94B50175
:100A0000DF91CF911F910F91FF90EF90DF90CF90EA
:100A100008950895E091BB028091BA02E81730F47E
:100A2000F0E0E65DFD4F808190E008958FEF9FEF4D
:100A300008959091BB028091BA02981750F4E92F63
:100A4000F0E0E65DFD4F208130E09F5F9093BB02B8
:100A500002C02FEF3FEFC90108958091BA0290E0E4
:100A60002091BB02821B91090895CF93DF93CB01A4
:100A7000EA01642F0E94D803CE01DF91CF9108953F
:100A8000CF93DF931F92CDB7DEB7698361E0CE01CC
:100A900001960E94D80381E090E00F90DF91CF9102
:100AA0000895089580E090E008959091BA028091B1
:100AB000BB02981731F088E693E00E9419058093F5
:100AC000000208950E94EA0A1F920F920FB60F9239
:100AD00011242F933F938F939F93AF93BF93809154
:100AE000C7029091C802A091C902B091CA02309188
:100AF000C60223E0230F2D3720F40196A11DB11D5E
:100B000005C026E8230F0296A11DB11D2093C60241
:100B10008093C7029093C802A093C902B093CA02FF
:100B20008091C2029091C302A091C402B091C5020B
:100B30000196A11DB11D8093C2029093C302A093A0
:100B4000C402B093C502BF91AF919F918F913F9125
:100B50002F910F900FBE0F901F9018951F920F921C
:100B60000FB60F9211240BB60F922F933F934F9312
:100B70005F936F937F938F939F93AF93BF93EF9305
:100B8000FF938BEC92E00E94E102FF91EF91BF9105
:100B9000AF919F918F917F916F915F914F913F9115
:100BA0002F910F900BBE0F900FBE0F901F901895B6
:100BB0001F920F920FB60F9211240BB60F922F9324
:100BC0008F939F93EF93FF93E091DB02F091DC0210
:100BD0008081E091E102F091E20282FD12C09081F9
:100BE0008091E4028F5F8F732091E502821751F0AC
:100BF000E091E402F0E0E553FD4F958F8093E4022D
:100C000001C08081FF91EF919F918F912F910F9063
:100C10000BBE0F900FBE0F901F9018951F920F9252
:100C20000FB60F9211240BB60F922F933F934F9351
:100C30005F936F937F938F939F93AF93BF93EF9344
:100C4000FF938091B900887F803609F49CC068F5D5
:100C5000883209F45BC090F4803109F454C038F450
:100C6000882309F4F6C0883009F44DC0F6C08831F5
:100C700009F44CC0803209F45DC0EFC0803409F43F
:100C800068C048F4803309F455C0883309F0E5C0E2
:100C900080939102D8C0803509F44FC0883509F49B
:100CA0005DC0883409F0D9C0D6C0883909F4C7C0FE
:100CB000A8F4883709F467C038F4883609F463C0AB
:100CC000803709F460C0C9C0883809F4B8C08039D9
:100CD00009F45FC0803809F0C0C05BC0803B09F4F4
:100CE00086C038F4803A09F466C0883A09F47FC0B7
:100CF000B4C0803C09F4A7C0883C09F4A4C0883B78
:100D000009F48AC0AAC08091B40210C09091B302C5
:100D10008091B202981770F5E091B30281E08E0FD6
:100D20008093B302F0E0EE56FD4F80818093BB00CC
:100D300085EC86C0809391028EC0E091B30281E081
:100D40008E0F8093B3028091BB00F0E0EE56FD4F12
:100D500080839091B3028091B2026EC0E091B302A1
:100D600081E08E0F8093B3028091BB00F0E0EE56DD
:100D7000FD4F80838091B60281116DC081E0809328
:100D8000B50284EA61C083E08093B70210929002BA
:100D9000CFCF80919002803208F051C0E091900254
:100DA00081E08E0F809390028091BB00F0E0E059CB
:100DB000FD4F8083BDCF85EC8093BC001092B702BD
:100DC00080919002803230F4E0919002F0E0E0599E
:100DD000FD4F10826091900270E0E091BC02F091B2
:100DE000BD0280E792E019951092900236C084E02F
:100DF0008093B70210926F0210926E02E091BE02D1
:100E0000F091BF02199580916E02811105C081E0B9
:100E100080936E0210924E02E0916F0281E08E0F7D
:100E200080936F02F0E0E25BFD4F80818093BB0016
:100E300090916F0280916E02981708F479CF85E83F
:100E40008093BC000AC085EC8093BC001092B7026E
:100E500004C0109291020E94CE03FF91EF91BF91C6
:100E6000AF919F918F917F916F915F914F913F9142
:100E70002F910F900BBE0F900FBE0F901F901895E3
:100E80001F920F920FB60F9211240BB60F922F9351
:100E90003F934F935F936F937F938F939F93AF9302
:100EA000BF93EF93FF9348E251E064E271E080E08A
:100EB00090E00E944204FF91EF91BF91AF919F910A
:100EC0008F917F916F915F914F913F912F910F90F3
:100ED0000BBE0F900FBE0F901F9018951F920F9290
:100EE0000FB60F9211240BB60F922F933F934F938F
:100EF0005F936F937F938F939F93AF93BF93EF9382
:100F0000FF9348EA50E064EA70E083E090E00E94DA
:100F10004204FF91EF91BF91AF919F918F917F918B
:100F20006F915F914F913F912F910F900BBE0F905A
:100F30000FBE0F901F9018951F920F920FB60F9231
:100F400011240BB60F922F933F934F935F936F93A0
:100F50007F938F939F93AF93BF93EF93FF9348E952
:100F600050E064E970E082E090E00E944204FF916A
:100F7000EF91BF91AF919F918F917F916F915F9111
:100F80004F913F912F910F900BBE0F900FBE0F907E
:100F90001F9018951F920F920FB60F9211240BB647
:100FA0000F922F933F934F935F936F937F938F9302
:100FB0009F93AF93BF93EF93FF9348E850E064E8AB
:100FC00070E081E090E00E944204FF91EF91BF91B8
:100FD000AF919F918F917F916F915F914F913F91D1
:100FE0002F910F900BBE0F900FBE0F901F90189572
:100FF0001092CE021092CD0288EE93E0A0E0B0E015
:101000008093CF029093D002A093D102B093D202EA
:1010100025E032E03093CC022093CB0225EC30E087
:101020003093D8022093D70224EC30E03093DA02D8
:101030002093D90220EC30E03093DC022093DB02D5
:1010400021EC30E03093DE022093DD0222EC30E030
:101050003093E0022093DF0226EC30E03093E2028E
:101060002093E1021092E4021092E5021092E6024F
:101070001092E70210926B0310926A0380936C0344
:1010800090936D03A0936E03B0936F0387E192E09A
:101090009093690380936803809104048033A0F4E3
:1010A00091E0980F909304048093050490E0FC0174
:1010B000EE0FFF1F8E0F9F1FFC01EC58FC4F88EBBB
:1010C0009BE09283818308958FEF809305040895B8
:1010D000789484B5826084BD84B5816084BD85B513
:1010E000826085BD85B5816085BD80916E0081601F
:1010F00080936E00109281008091810082608093C5
:1011000081008091810081608093810080918000C6
:101110008160809380008091B10084608093B100F1
:101120008091B00081608093B000809191008260D6
:1011300080939100809191008160809391008091D3
:1011400090008160809390008091A10082608093E4
:10115000A1008091A10081608093A1008091A000F6
:1011600081608093A00080912101826080932101A1
:101170008091210181608093210180912001816013
:101180008093200180917A00846080937A0080911E
:101190007A00826080937A0080917A0081608093E7
:1011A0007A0080917A00806880937A001092C10062
:1011B00088E18093BA008FE692E09093BF0280931B
:1011C000BE0280E792E09093BD028093BC02109231
:1011D000BB021092BA021092B9021092B802109299
:1011E000B70281E08093B6021092B50261E084E11B
:1011F0000E94B50161E085E10E94B5018091B900CE
:101200008E7F8093B9008091B9008D7F8093B90063
:1012100088E48093B80085E48093BC00E091DB0211
:10122000F091DC0282E08083E091D702F091D80255
:101230001082E091D902F091DA0280E1808310926D
:10124000E302E091DF02F091E00286E08083E0912A
:10125000DD02F091DE02808180618083E091DD0219
:10126000F091DE02808188608083E091DD02F09160
:10127000DE02808180688083E091DD02F091DE02F1
:1012800080818F7D808385E595E09093C102809376
:10129000C00280910504803308F045C061E08CE015
:1012A0000E94330280910504E82FF0E09F01220F95
:1012B000331FE20FF31FEC58FC4F9081907C9C6031
:1012C000908399ED9093060497EE909307046CE059
:1012D0000E94D60A90E02CE0829FB001112440E0E9
:1012E00050E09B01240F351FF901EE0FFF1F2E0F59
:1012F0003F1FF901EC58FC4F208126FD07C04F5FCE
:101300005F4F4C30510569F70E940004E0910504DD
:10131000F0E0CF01880F991FE80FF91FEC58FC4F40
:1013200080818064808380910504803308F043C00D
:1013300061E08AE50E94330280910504E82FF0E025
:101340009F01220F331FE20FF31FEC58FC4F9081D7
:10135000907C9A61908310920604109207046CE0CE
:101360000E94D60A90E0ECE08E9FB001112440E08C
:1013700050E09B01240F351FF901EE0FFF1F2E0FC8
:101380003F1FF901EC58FC4F208126FD07C04F5F3D
:101390005F4F4C30510569F70E940004E09105044D
:1013A000F0E0CF01880F991FE80FF91FEC58FC4FB0
:1013B00080818064808361E08AE00E94330261E082
:1013C0008BE00E94330262E083E00E94330262E01D
:1013D00088E00E94330261E086E10E94330261E00E
:1013E00087E10E94330261E088E10E94330261E0FC
:1013F00089E10E94330260E08AE10E94330261E0E9
:1014000086E10E94B50160E087E10E94B50106EC2B
:1014100012E0C8E7D0E088E7F82E80910002803320
:1014200009F0C1C061E08AE00E943302F8018491B2
:1014300090E0FC013197E231F10508F09DC088276A
:10144000EC57FF4F8F4F0C94E20A84B5806884BD3F
:10145000F7BC96C084B5806284BDF8BC91C0809111
:101460008000806880938000D0938900C0938800BA
:1014700087C080918000806280938000D0938B0031
:10148000C0938A007DC08091800088608093800036
:10149000D0938D00C0938C0073C08091B0008068A1
:1014A0008093B000F092B3006BC08091B000806276
:1014B0008093B000F092B40063C080919000806887
:1014C00080939000D0939900C093980059C0809168
:1014D0009000806280939000D0939B00C0939A000C
:1014E0004FC080919000886080939000D0939D00C1
:1014F000C0939C0045C08091A00080688093A000AC
:101500008091A0008F7B8093A000D093A900C0930E
:10151000A80036C08091A00080628093A000D09384
:10152000AB00C093AA002CC08091A000886080937B
:10153000A000D093AD00C093AC0022C080912001E8
:10154000806880932001D0932901C093280118C09E
:1015500080912001806280932001D0932B01C09361
:101560002A010EC080912001886080932001D093D1
:101570002D01C0932C0104C060E08AE00E94B501F7
:1015800061E08BE00E94330260E08BE00E94B501D5
:101590008FB7F8944091C7025091C8026091C90278
:1015A0007091CA028FBF0E946B0337CF991B79E0FD
:1015B00004C0991F961708F0961B881F7A95C9F7E3
:1015C00080950895EE0FFF1F881F8BBF0790F6913F
:1015D000E02D199481E090E0F8940C94EF0AF894CF
:0215E000FFCF3B
:1015E20030000000000203A4039A024903CB02A9BF
:1015F20002BD020000000040053505520509052D17
:061602000519050A0500B0
:00000001FF
